:020000040800F2
:1000000000000320F50A0008350A000895020008E0
:10001000370A0008390A00083B0A000800000000FF
:10002000000000000000000000000000450B000878
:100030003D0A0008000000001B020008310700080C
:10004000450B0008450B0008450B0008450B000850
:10005000450B0008450B0008450B0008450B000840
:10006000450B0008450B0008450B0008450B000830
:10007000450B0008450B0008450B0008450B000820
:10008000450B0008450B0008450B0008450B000810
:10009000450B0008450B0008450B0008450B000800
:1000A000450B0008450B0008450B0008450B0008F0
:1000B000450B0008450B0008410A0008450B0008E5
:1000C000450B0008450B0008450B0008450B0008D0
:1000D000450B0008450B0008450B0008450B0008C0
:1000E000450B0008450B0008450B0008450B0008B0
:1000F000450B0008450B0008450B0008450B0008A0
:10010000450B0008450B0008450B0008450B00088F
:10011000450B0008450B0008450B0008450B00087F
:10012000450B0008450B0008450B0008450B00086F
:10013000450B0008450B0008450B0008450B00085F
:10014000450B0008450B0008450B0008450B00084F
:10015000450B0008450B0008450B0008450B00083F
:10016000450B0008450B0008450B0008450B00082F
:10017000450B0008450B0008450B00080000000077
:10018000450B0008450B0008450B0008450B00080F
:10019000450B0008450B0008450B0008450B0008FF
:0C01A000450B0008450B0008450B00084B
:1001AC0010B5054C237833B9044B13B10448AFF3A5
:1001BC0000800123237010BDCC040020000000003F
:1001CC009C42000808B5034B1BB103490348AFF32D
:1001DC00008008BD00000000D00400209C420008F4
:1001EC00EFF3108072B6704780F310887047344A72
:1001FC001368012B04D04FF001031360314A1060D7
:10020C00314A116031484FF0805101607047EFF373
:10021C00108272B62A48016891B14FF0000101605A
:10022C002848016829B1EFF3098121E9F00F006832
:10023C000160254909680968B1E8F00F81F3098864
:10024C0082F310884EF0040E70471F4908601D4958
:10025C004FF0000008601A494FF0010008601C487C
:10026C001C49D0F8002041EA0201016017484FF008
:10027C008051016018480068006800BF80F308884E
:10028C0061B662B6704700BFEFF308801EF0040F32
:10029C0001D0EFF3098020E9F00F40F804ED1EF0D7
:1002AC00040F02D080F3098801E080F3088800B5C0
:1002BC0001F0CAFE5DF804EB4EF0040E704700002E
:1002CC00C8410020C0410020C441002004ED00E0E2
:1002DC0020ED00E00000FFFF08ED00E053B94AB943
:1002EC00002908BF00281CBF4FF0FF314FF0FF3032
:1002FC0000F074B9ADF1080C6DE904CE00F006F80D
:10030C00DDF804E0DDE9022304B070472DE9F04785
:10031C00089E0D4604468846002B4DD18A429446D1
:10032C0068D9B2FA82F252B101FA02F3C2F1200199
:10033C0020FA01F10CFA02FC41EA030894404FEA5E
:10034C001C45210CB8FBF5FE1FFA8CF705FB1E8330
:10035C0041EA03430EFB07F199420BD91CEB030353
:10036C000EF1FF3080F01E81994240F21B81AEF1FC
:10037C00020E63445B1AA4B2B3FBF5F005FB103319
:10038C0044EA034400FB07F7A7420AD91CEB040418
:10039C0000F1FF3380F00881A74240F205816444EC
:1003AC000238E41B40EA0E4000211EB1D440002369
:1003BC00C6E90043BDE8F0878B4208D9002E00F057
:1003CC00EE800021C6E900050846BDE8F087B3FAC7
:1003DC0083F100294AD1AB4202D3824200F2F98068
:1003EC00841A65EB030301209846002EE2D0C6E97F
:1003FC000048DFE702B9FFDEB2FA82F2002A40F0D1
:10040C009180A1EB0C054FEA1C471FFA8CFE0121D1
:10041C00B5FBF7F307FB1350250C45EA00450EFB23
:10042C0003F0A84208D91CEB050503F1FF3802D2F2
:10043C00A84200F2CB8043462D1AA4B2B5FBF7F0CC
:10044C0007FB105544EA05440EFB00FEA64508D9EF
:10045C001CEB040400F1FF3502D2A64500F2BB8070
:10046C002846A4EB0E0440EA03409EE7C1F12007A6
:10047C008B4022FA07FC4CEA030C20FA07F405FA2D
:10048C0001F31C43FD404FEA1C4900FA01F3B5FB94
:10049C00F9F8200C1FFA8CFE09FB185540EA0545AB
:1004AC0008FB0EF0A84202FA01F20BD91CEB050571
:1004BC0008F1FF3A80F08880A84240F28580A8F1CC
:1004CC00020865442D1AA4B2B5FBF9F009FB1055CE
:1004DC0044EA054500FB0EFEAE4508D91CEB0505AC
:1004EC0000F1FF346CD2AE456AD90238654440EA5B
:1004FC000840A0FB0294A5EB0E05A542C846A646F3
:10050C0056D353D05EB1B3EB080265EB0E0505FA7A
:10051C0007F722FA01F3CD401F43C6E9007500210D
:10052C00BDE8F087C2F1200320FA03F10CFA02FCBB
:10053C0025FA03F395400D434FEA1C471FFA8CFE36
:10054C00B3FBF7F107FB11302B0C43EA004301FB23
:10055C000EF0984204FA02F408D91CEB030301F1E3
:10056C00FF382FD298422DD9023963441B1AADB2F1
:10057C00B3FBF7F007FB103345EA034500FB0EF322
:10058C00AB4208D91CEB050500F1FF3816D2AB4283
:10059C0014D902386544ED1A40EA014138E7314676
:1005AC00304607E78646E5E61846FAE64B45A9D2FB
:1005BC00B9EB020864EB0C0E0138A3E74046EAE7FE
:1005CC00204694E74146D1E7D0467BE7023B6544A1
:1005DC0032E7084609E76444023842E7704700BF37
:1005EC00844641EA000313F003036DD1403A41D332
:1005FC0051F8043B40F8043B51F8043B40F8043BF1
:10060C0051F8043B40F8043B51F8043B40F8043BE0
:10061C0051F8043B40F8043B51F8043B40F8043BD0
:10062C0051F8043B40F8043B51F8043B40F8043BC0
:10063C0051F8043B40F8043B51F8043B40F8043BB0
:10064C0051F8043B40F8043B51F8043B40F8043BA0
:10065C0051F8043B40F8043B51F8043B40F8043B90
:10066C0051F8043B40F8043B51F8043B40F8043B80
:10067C00403ABDD2303211D351F8043B40F8043B20
:10068C0051F8043B40F8043B51F8043B40F8043B60
:10069C0051F8043B40F8043B103AEDD20C3205D330
:1006AC0051F8043B40F8043B043AF9D2043208D028
:1006BC00D2071CBF11F8013B00F8013B01D30B889A
:1006CC0003806046704700BF082A13D38B078DD078
:1006DC0010F003038AD0C3F10403D21ADB071CBF4A
:1006EC0011F8013B00F8013B80D331F8023B20F8B4
:1006FC00023B7BE7043AD9D3013A11F8013B00F8ED
:10070C00013BF9D20B7803704B7843708B78837074
:10071C0060467047004870472C0500200048704721
:10072C002C41002008B501F063FF01F021FD01F020
:10073C0075FF08BD10B500F001FA00F085F800F067
:10074C0083F900F0A7FE094BA3FB0030800900F0F1
:10075C0079FA01F029FDFFF7DDFF0446FFF7DEFF14
:10076C000146204602F0CAFA10BD00BFD34D6210FC
:10077C00F0B583B005460D238DF8073000240F4BE0
:10078C0083F83C4002F054F8074606E001231A4671
:10079C0031460A4801F057F90134BC420BD22E19EC
:1007AC002B5D0A2BF2D101231A460DF107010348E8
:1007BC0001F049F9EAE703B0F0BD00BFE8040020FE
:1007CC0082B0002100910B4B1A6B42F080021A632D
:1007DC001A6B02F080020092009A01911A6B42F09F
:1007EC0001021A631B6B03F001030193019B02B01E
:1007FC00704700BF0038024008B50268034B9A42AC
:10080C0000D008BD00F0B4F9FBE700BF00080040C1
:10081C0072B6FEE708B50A480A4B03604FF4E133A1
:10082C00436000238360C36003610C2242618361D7
:10083C00C36101F0D9F800B908BDFFF7E9FF00BFAB
:10084C002C410020004C004000B595B03022002116
:10085C0008A803F05BFC0023039304930593069311
:10086C0007930193214A116C41F080511164126C71
:10087C0002F080520192019A02931D4A136823F4EC
:10088C00404343F480431360136803F440430293E2
:10089C00029B012308934FF48033099302230E9398
:1008AC004FF480020F92082210926C221192129334
:1008BC000423139308A800F0D7FA98B90F230393D5
:1008CC0002230493002305934FF4A05306934FF493
:1008DC0080530793032103A800F02CFD20B915B019
:1008EC005DF804FBFFF794FFFFF792FF003802401E
:1008FC000070004008B500F021F9FFF7A5FFFFF7E5
:10090C005FFFFFF787FFFEE782B0002100910B4BE2
:10091C005A6C42F480425A645A6C02F4804200923F
:10092C00009A01911A6C42F080521A641B6C03F00D
:10093C0080530193019B02B0704700BF0038024006
:10094C0000B589B000230393049305930693079392
:10095C000268144B9A4202D009B05DF804FB0021E6
:10096C00019103F5F6331A6C42F400221A641A6CE6
:10097C0002F400220192019A02911A6B42F00102D8
:10098C001A631B6B03F001030293029B0323039373
:10099C000222049206930823079303A9024800F04D
:1009AC0065F9D9E7004C00400000024010B588B052
:1009BC00014600221E2000F0FFF81E2000F034F942
:1009CC0000240194144B1A6C42F004021A641B6C40
:1009DC0003F004030193019B02A903A800F080FD1E
:1009EC0000F05EFD43000D48A0FB03239B0C013B74
:1009FC000B480C4A026040F2E732C260436004616B
:100A0C00846000F0F7FE10B1012008B010BD04485E
:100A1C0000F086FDF9E700BF0038024083DE1B437F
:100A2C007041002000080040FEE7FEE7FEE7FEE70D
:100A3C007047000008B5024800F0BAFD08BD00BFC1
:100A4C007041002070470000224B9B6803F00C03A0
:100A5C00042B14D0082B16D01BB11F4B1F4A1A6045
:100A6C0002E01D4B1D4A1A601A4B9B68C3F303131B
:100A7C001B4AD15C184A1368CB4013607047164B65
:100A8C00184A1A60F0E7134B59685A6802F03F0293
:100A9C0011F4800F13D0134BB3FBF2F30D4A5268D1
:100AAC00C2F3881202FB03F30A4A5268C2F30142F2
:100ABC0001325200B3FBF2F3074A1360D4E7074B41
:100ACC00B3FBF2F3034A5268C2F3881202FB03F33E
:100ADC00EAE700BF00380240000000200024F400C8
:100AEC00B4420008000CF800DFF834D00D480E4971
:100AFC000E4A002302E0D458C4500433C4188C426C
:100B0C00F9D30B4A0B4C002301E013600432A242D0
:100B1C00FBD3FFF797FF03F0D5FA01F0BCFB70474E
:100B2C000000032000000020CC040020CC51000861
:100B3C00CC04002014480020FEE7000008B50B4B45
:100B4C001A6842F400721A601A6842F480621A60E1
:100B5C001A6842F480721A60032000F01BF80F2010
:100B6C00FFF724FFFFF7D0FE002008BD003C024039
:100B7C00034A1168034B1B780B441360704700BF8A
:100B8C00B841002004000020014B1868704700BFDA
:100B9C00B8410020074AD36823F4E0631B041B0C04
:100BAC00000200F4E060034343F0BF6343F40033FE
:100BBC00D360704700ED00E000B5194BDB68C3F360
:100BCC000223C3F1070CBCF1040F28BF4FF0040C37
:100BDC0003F1040EBEF1060F18D9033B4FF0FF3E94
:100BEC000EFA0CFC21EA0C0199400EFA03F322EAEE
:100BFC000303194300280BDB0901C9B200F1604063
:100C0C0000F5614080F800135DF804FB0023E5E774
:100C1C0000F00F000901C9B2024B1954F4E700BFF0
:100C2C0000ED00E014ED00E0002807DB00F01F02EF
:100C3C00400901239340024A42F82030704700BF1C
:100C4C0000E100E00138B0F1807F0BD24FF0E023DF
:100C5C005861054AF02182F8231000209861072280
:100C6C001A6170470120704700ED00E000230F2B44
:100C7C0000F2F18070B582B061E085685E000324FB
:100C8C00B44025EA0405CC68B4402C438460456824
:100C9C0025EA02054C68C4F300129A402A434260CC
:100CAC005BE0DC08083450F8246003F00702950080
:100CBC000F22AA4026EA020E0A69AA4042EA0E0254
:100CCC0040F824205DE0092200E0002202FA0EF236
:100CDC002A430234604D45F82420604A14686FEAB8
:100CEC000C0224EA0C054E6816F4803F01D04CEA45
:100CFC0004055A4C2560646802EA04054E6816F433
:100D0C00003F01D04CEA0405544C6560A46802EA2B
:100D1C0004054E6816F4801F01D04CEA04054F4CB4
:100D2C00A560E46822404D6815F4001F01D04CEA20
:100D3C0004024A4CE26001330F2B00F28A8001223C
:100D4C009A400C6804EA020C32EA0404F3D14C68B1
:100D5C0004F00304013C012C8FD94A6802F0030211
:100D6C00032A09D0C4685D000322AA4024EA0204C5
:100D7C008A68AA402243C2604A6802F00302022A2F
:100D8C008FD004684FEA430E032202FA0EF224EAD3
:100D9C0002044A6802F0030202FA0EF222430260D5
:100DAC004A6812F4403FC6D0002201922C4A546C7F
:100DBC0044F480445464526C02F480420192019ACF
:100DCC009C08A51C244A52F8255003F003024FEA54
:100DDC00820E0F2202FA0EF225EA0205214A9042F7
:100DEC003FF473AF02F58062904222D002F580622C
:100DFC00904220D002F5806290421ED002F58062B3
:100E0C0090421CD002F5806290421AD002F58062AA
:100E1C00904218D002F58062904216D002F58062A2
:100E2C00904214D002F5806290423FF44CAF0A22FB
:100E3C004CE701224AE7022248E7032246E7042254
:100E4C0044E7052242E7062240E707223EE7082254
:100E5C003CE702B070BD704700380140003C0140D7
:100E6C000038024000000240002800F0E08170B51C
:100E7C0082B00446036813F0010F3BD09F4B9B6874
:100E8C0003F00C03042B2CD09C4B9B6803F00C033D
:100E9C00082B21D06368B3F5803F4FD0B3F5A02F5A
:100EAC0052D0964B1A6822F480321A601A6822F4D7
:100EBC0080221A606368002B50D0FFF765FE054650
:100ECC008E4B1B6813F4003F14D1FFF75DFE401BE3
:100EDC006428F5D90320B1E1884B5B6813F4800FCB
:100EEC00D8D0864B1B6813F4003F03D06368002BEB
:100EFC0000F09F81236813F0020F54D07F4B9B6846
:100F0C0013F00C0F3ED07D4B9B6803F00C03082BA9
:100F1C0033D0E368002B68D0794B01221A60FFF7BD
:100F2C0033FE0546754B1B6813F0020F54D1FFF7C7
:100F3C002BFE401B0228F5D903207FE16F4A136872
:100F4C0043F480331360B5E76C4B1A6842F480228B
:100F5C001A601A6842F480321A60ABE7FFF714FE8D
:100F6C000546664B1B6813F4003FC3D0FFF70CFE1D
:100F7C00401B6428F5D9032060E1604B5B6813F4D7
:100F8C00800FC6D15D4B1B6813F0020F03D0E368D2
:100F9C00012B40F05081594A136823F0F803216962
:100FAC0043EAC1031360236813F0080F42D063694E
:100FBC006BB3534B0122C3F8802EFFF7E5FD0546BA
:100FCC004E4B5B6F13F0020F34D1FFF7DDFD401B6E
:100FDC000228F5D9032031E1484A136823F0F803BD
:100FEC00216943EAC1031360DDE7454B00221A6017
:100FFC00FFF7CAFD0546414B1B6813F0020FD2D018
:10100C00FFF7C2FD401B0228F5D9032016E13C4B2B
:10101C000022C3F8802EFFF7B7FD0546374B5B6FF8
:10102C0013F0020F06D0FFF7AFFD401B0228F5D9D5
:10103C00032003E1236813F0040F77D02F4B1B6CB4
:10104C0013F0805F33D1002301932C4B1A6C42F0C8
:10105C0080521A641B6C03F080530193019B012591
:10106C00284B1B6813F4807F23D0A368012B34D04A
:10107C00052B38D0214B1A6F22F001021A671A6F18
:10108C0022F004021A67A368002B3DD0FFF77CFD09
:10109C0006461A4B1B6F13F0020F46D1FFF774FD77
:1010AC00801B41F288339842F3D90320C6E0002517
:1010BC00D6E7144A136843F480731360FFF764FD9A
:1010CC000646104B1B6813F4807FCED1FFF75CFDF6
:1010DC00801B0228F5D90320B0E0084A136F43F0B7
:1010EC0001031367CFE7054B1A6F42F004021A672E
:1010FC001A6F42F001021A67C5E700BF00380240C0
:10110C000000474200700040FFF73EFD0646524B80
:10111C001B6F13F0020F08D0FFF736FD801B41F256
:10112C0088339842F3D9032088E0EDB9A369002BEA
:10113C0000F08380484A926802F00C02082A51D0D1
:10114C00022B17D0454B00221A66FFF71DFD0446F3
:10115C00414B1B6813F0007F42D0FFF715FD001BBD
:10116C000228F5D9032069E03B4A136C23F0805325
:10117C001364DBE7394B00221A66FFF705FD0546C1
:10118C00354B1B6813F0007F06D0FFF7FDFC401BAE
:10119C000228F5D9032051E0E369226A1343626AFD
:1011AC0043EA8213A26A5208013A43EA0243E26A12
:1011BC0043EA0263284A5360284B01221A66FFF760
:1011CC00E3FC0446244B1B6813F0007F06D1FFF7A9
:1011DC00DBFC001B0228F5D903202FE000202DE0BA
:1011EC0000202BE0012B2BD01B4B5B6803F4800100
:1011FC00E269914226D103F03F02216A8A4223D14F
:10120C00616A47F6C0721A40B2EB811F1ED103F41B
:10121C004031A26A5208013AB1EB024F18D103F0E7
:10122C007063E26AB3EB026F14D1002006E0012078
:10123C007047012002E0012000E0002002B070BDE8
:10124C000120FBE70120F9E70120F7E70120F5E792
:10125C000120F3E70120F1E700380240000047428B
:10126C0008B5314B9B6803F00C03042B57D0082BAB
:10127C0057D12D4B5A6802F03F025B6813F4800F74
:10128C002AD0294B5968C1F3881C4FEA4C13B3EB95
:10129C000C0360EB0000C00140EA5360DB0113EB70
:1012AC000C0140F100039B0043EA91738900B1EB00
:1012BC000C0163F100034FEA832C002388024CEAF3
:1012CC009151FFF70BF8184B5B68C3F301430133E3
:1012DC005B00B0FBF3F025E0134B5968C1F3881C9D
:1012EC004FEA4C11B1EB0C006EEB0E0E4FEA8E1365
:1012FC0043EA90638101091A63EB0E03DB0043EAB6
:10130C005173C90011EB0C0C43F10003990200233B
:10131C004FEA8C2041EA9C51FEF7E0FFD3E70348EB
:10132C0000E0034808BD00BF00380240000CF80084
:10133C000024F400002800F09B8070B50D46044694
:10134C004F4B1B6803F00F038B4208D2CBB24C4AB5
:10135C001370136803F00F038B4240F08B802368EB
:10136C0013F0020F17D013F0040F04D0454A936802
:10137C0043F4E0539360236813F0080F04D0414A00
:10138C00936843F4604393603E4A936823F0F00300
:10139C00A1680B439360236813F0010F32D063688C
:1013AC00012B21D09A1E012A25D9364A126812F037
:1013BC00020F61D033498A6822F0030213438B6019
:1013CC00FFF7E2FB06462F4B9B6803F00C036268A9
:1013DC00B3EB820F16D0FFF7D7FB801B41F288339B
:1013EC009842F0D9032042E0264A126812F4003FDA
:1013FC00E0D101203BE0234A126812F0007FD9D1E2
:10140C00012034E01E4B1B6803F00F03AB4207D9DD
:10141C00EAB21B4B1A701B6803F00F03AB422DD1C1
:10142C00236813F0040F06D0164A936823F4E05394
:10143C00E1680B439360236813F0080F07D0114A3F
:10144C00936823F46043216943EAC1039360FFF777
:10145C0007FF0C4B9B68C3F303130B4AD35CD840B8
:10146C000A4B18600A4B1868FFF7A0FA002070BDF1
:10147C00012070470120FAE70120F8E70120F6E788
:10148C00003C024000380240B4420008000000203A
:10149C0008000020014B1868704700BF00000020B6
:1014AC0008B5FFF7F7FF044B9B68C3F38223034A8D
:1014BC00D35CD84008BD00BF00380240C4420008CD
:1014CC0008B5FFF7E7FF044B9B68C3F34233034AAD
:1014DC00D35CD84008BD00BF00380240C4420008AD
:1014EC000F2303600B4B9A6802F0030242609A6868
:1014FC0002F0F00282609A6802F4E052C2609B68CB
:10150C00DB0803F4E0530361034B1B6803F00F0388
:10151C000B60704700380240003C024070470000EE
:10152C0090F83D30DBB2012B37D1022380F83D30EF
:10153C000268D36843F00103D3600368194A9342ED
:10154C0020D0B3F1804F1DD0A2F57C42934219D02C
:10155C0002F58062934215D002F58062934211D05D
:10156C0002F5784293420DD002F57052934209D0A5
:10157C00A2F59432934205D01A6842F001021A6027
:10158C00002070479A6802F00702062A07D01A68F2
:10159C0042F001021A6000207047012070470020C1
:1015AC00704700BF0000014070477047704770479C
:1015BC0010B5044603681A6912F0020F11D0DA68EC
:1015CC0012F0020F0DD06FF002021A6101230377A3
:1015DC0003689B6913F0030F70D0FFF7E6FF00233D
:1015EC00237723681A6912F0040F12D0DA6812F00C
:1015FC00040F0ED06FF004021A61022323772368C4
:10160C009B6913F4407F5FD02046FFF7CEFF002389
:10161C00237723681A6912F0080F12D0DA6812F0D7
:10162C00080F0ED06FF008021A6104232377236889
:10163C00DB6913F0030F4ED02046FFF7B6FF0023F3
:10164C00237723681A6912F0100F12D0DA6812F09F
:10165C00100F0ED06FF010021A6108232377236845
:10166C00DB6913F4407F3DD02046FFF79EFF00233B
:10167C00237723681A6912F0010F03D0DA6812F08D
:10168C00010F36D123681A6912F0800F03D0DA6883
:10169C0012F0800F34D123681A6912F0400F03D076
:1016AC00DA6812F0400F32D123681A6912F0200F59
:1016BC0003D0DA6812F0200F30D110BDFFF774FFA1
:1016CC002046FFF773FF8AE72046FFF76DFF2046A1
:1016DC00FFF76CFF9BE72046FFF766FF2046FFF7FE
:1016EC0065FFACE72046FFF75FFF2046FFF75EFF84
:1016FC00BDE76FF001021A612046FFF77DF8C1E7E4
:10170C006FF080021A61204600F0A1F8C3E76FF079
:10171C0040021A612046FFF74AFFC5E76FF020022E
:10172C001A61204600F092F8C7E700000368304ABF
:10173C00904212D0B0F1804F0FD0A2F57C42904273
:10174C000BD002F58062904207D002F58062904285
:10175C0003D002F57842904203D123F070034A681B
:10176C001343234A90422AD0B0F1804F27D0A2F5E0
:10177C007C42904223D002F5806290421FD002F549
:10178C00806290421BD002F57842904217D002F54D
:10179C007052904213D002F5806290420FD002F545
:1017AC00806290420BD0A2F59832904207D002F59D
:1017BC008062904203D002F58062904203D123F400
:1017CC004073CA68134323F080034A6913430360D0
:1017DC008B68C3620B688362054B984203D003F598
:1017EC008063984201D10B69036301234361704705
:1017FC000000014040B310B5044690F83D30F3B101
:10180C00022384F83D30214651F8040BFFF78EFF7C
:10181C00012384F8463084F83E3084F83F3084F855
:10182C00403084F8413084F8423084F8433084F8F6
:10183C00443084F8453084F83D30002010BD80F8E9
:10184C003C30FFF76BFEDBE70120704770477047B9
:10185C0038B504460268136923F44053C1680B433E
:10186C00136183680269134342691343C2691A43C3
:10187C000168CB6823F4164323F00C031343CB60AD
:10188C000268536923F4407381690B435361036805
:10189C00314A934206D002F58062934202D0FFF7A0
:1018AC00FFFD01E0FFF70CFEE369B3F5004F29D013
:1018BC000021031849411B1841F10001C90041EAFC
:1018CC005371DB00181863684FEA83024FEA937375
:1018DC0041F10001FEF702FD204DA5FB003251093C
:1018EC00642303FB11031B013233A5FB03235B09A8
:1018FC0003F0F00202EB011203F00F032168134412
:10190C008B6038BD0023021843EB0301121841F120
:10191C000001C90041EA5271D200101841F10001D6
:10192C00626892185B41FEF7D9FC0C4DA5FB0032A6
:10193C005109642303FB1103DB003233A5FB0323A2
:10194C005B095A0002F4F87202EB011203F0070370
:10195C00216813448B60D4E7001001401F85EB51C4
:10196C002DE9F84305460F4616469946DDF82080CA
:10197C002C68246837EA04030CBF4FF0010C4FF0BD
:10198C00000CB4452DD1B8F1FF3FF1D0B8F1000FE8
:10199C0005D0FFF7F9F8A0EB09004045E8D92A6813
:1019AC0002F10C0353E8003F23F4D0730C3242E8ED
:1019BC0000310029F3D12A6802F1140353E8003FE7
:1019CC0023F00103143242E800310029F3D1202323
:1019DC0085F83D3085F83E30002385F83C300320F7
:1019EC0000E00020BDE8F88358B310B5044690F829
:1019FC003D300BB3242384F83D302268D36823F4A4
:101A0C000053D3602046FFF723FF2268136923F4A9
:101A1C00904313612268536923F02A0353612268AF
:101A2C00D36843F40053D36000202064202384F84F
:101A3C003D3084F83E3010BD80F83C30FEF780FF1E
:101A4C00D8E7012070472DE9F04182B01E4690F88E
:101A5C003D30DBB2202B54D104460D469046002974
:101A6C0053D0002A53D090F83C30012B51D0012395
:101A7C0080F83C3000230364212380F83D30FFF7CD
:101A8C0083F80746A4F82480A4F82680A368B3F54D
:101A9C00805F05D04FF00008002384F83C3012E042
:101AAC00236913B14FF00008F6E7A8460025F3E7C9
:101ABC0038F8023B2268C3F308035360E28C92B2FD
:101ACC00013A92B2E284E38C9BB273B100963B462E
:101ADC00002280212046FFF743FFE0B9002DE7D01C
:101AEC0015F8012B23685A60E8E700963B46002264
:101AFC0040212046FFF734FF78B9202384F83D308D
:101B0C0000E0022002B0BDE8F0810120FAE70120DC
:101B1C00F8E70220F6E70320F4E70320F2E70000E1
:101B2C002DE9F0410D4616461F46044690B120465D
:101B3C0001F0FEFB092814D1A37ECBB1D4F834807C
:101B4C00B8F1000F1AD03B46324629462046C04712
:101B5C00BDE8F08140F25F120B490C4801F058F8D7
:101B6C00E5E74FF4B0720849094801F051F8E3E792
:101B7C004FF0FF3000F02AFE0020E9E76FF005007F
:101B8C0000F024FE0020E3E740430008CC420008AC
:101B9C00DC420008F8B500230B61CB684BB304465C
:101BAC000E460B7A3BB30F68B0B10025FEF718FB5D
:101BBC0035B914F8043C23F08003327A93420ED1E9
:101BCC00736800252468A7420DD0013543F8044BF7
:101BDC00F268AA42F6D107E03C460125E6E7FEF79B
:101BEC0003FB002403E00024FEF7FEFA35612046D7
:101BFC00F8BD0024FBE70024F9E7F8B504460D46D0
:101C0C0017461E46084601F06FFA04302060257214
:101C1C006760E66000232361F8BD00002DE9F04306
:101C2C00B1B0082323AA01212BA8FFF7E6FF434AF2
:101C3C000821434800F080FF4FF0080808F1FF34FA
:101C4C00B8F1000F04D03F4800F076FFA046F5E74E
:101C5C003D4800F071FF002765E08022494603A84B
:101C6C00FEF7BEFC3046FEF7BFFA94F8293000931D
:101C7C00A4F10C0308221146344800F05DFF94F8DF
:101C8C00283003F00F03012B09D0022B0BD073B1BA
:101C9C00042B10D0032B12D0E069034614E02C481F
:101CAC0000F04AFFF8E72B4800F046FFF4E72A481B
:101CBC0000F042FFF0E7294800F03EFFECE728482F
:101CCC0000F03AFFE8E701331A78232AFBD0226AA6
:101CDC002169411AC31A1344642000FB03F3606AA0
:101CEC000190E06B0090B3FBF2F311441D4800F03F
:101CFC0023FF01352F9BAB4214DD30AB03EB850387
:101D0C0053F8344CA4F10C09FEF76AFA064614F8A1
:101D1C00043C23F080039DF8B42093429DD0FEF741
:101D2C0063FAE6E737B12BA93846FFF733FF0746CE
:101D3C004546DFE7002031B0BDE8F0835043000892
:101D4C00584300089C430008A0430008E0430008E7
:101D5C00EC430008F8430008044400081044000851
:101D6C001C4400082844000810B5264800F0E4FE86
:101D7C00254C94F82910254800F0DEFE94F8293003
:101D8C0013F0010F21D1204B93F8293013F0020FDF
:101D9C001FD11D4B93F8293013F0040F1DD11A4B92
:101DAC0093F8293013F0080F1BD1174B93F82930F7
:101DBC0013F0100F19D1144B93F8293013F0800F36
:101DCC0017D1134800F0B8FE10BD124800F0B4FE55
:101DDC00D9E7114800F0B0FEDBE7104800F0ACFE8C
:101DEC00DDE70F4800F0A8FEDFE70E4800F0A4FE88
:101DFC00E1E74FF0E023D3F8381D0B4800F09CFED0
:101E0C00E2E700BF5044000800ED00E05C4400082D
:101E1C00F446000874440008804400088C44000810
:101E2C009C440008A8440008B044000810B52148A0
:101E3C0000F082FE204C94F82810204800F07CFE24
:101E4C0094F8283013F0010F1BD11B4B93F828305A
:101E5C0013F0020F19D1184B93F8283013F0080F18
:101E6C0017D1154B93F8283013F0100F15D1124BD6
:101E7C0093F8283013F0800F13D1114800F05CFE5A
:101E8C0010BD104800F058FEDFE70F4800F054FE7C
:101E9C00E1E70E4800F050FEE3E70D4800F04CFE81
:101EAC00E5E74FF0E023D3F8341D0A4800F044FE78
:101EBC00E6E700BFC044000800ED00E0D444000891
:101ECC00F4460008EC440008F844000804450008F7
:101EDC00104500081C45000810B5214800F02CFEE8
:101EEC00204C618D89B2204800F026FE638D13F0E2
:101EFC00010F1CD11B4B5B8D13F0020F1BD1194B27
:101F0C005B8D13F0040F1AD1164B5B8D13F0080F79
:101F1C0019D1144B5B8D13F4807F18D1114B5B8D51
:101F2C0013F4007F17D1114800F006FE10BD1048C5
:101F3C0000F002FEDEE70F4800F0FEFDDFE70E4882
:101F4C0000F0FAFDE0E70D4800F0F6FDE1E70C4883
:101F5C0000F0F2FDE2E70B4800F0EEFDE3E700BF16
:101F6C002C45000800ED00E03C450008F446000854
:101F7C0054450008604500086C450008744500088D
:101F8C007C4500088845000808B54FF0E023D3F8DD
:101F9C002C3D13F0020F19D14FF0E023D3F82C3D58
:101FAC0013F0804F0BD0124B93F8293093B9104B90
:101FBC0093F828308BB90E4B5B8D9BB283B94FF0E5
:101FCC00E023D3F82C3D002B0DDB08BD094800F0B5
:101FDC00B3FDE1E7FFF7C8FEE9E7FFF727FFEAE704
:101FEC00FFF77AFFEBE7044800F0A6FDEDE700BF32
:101FFC0000ED00E094450008AC45000830B40546FF
:10200C00043222F0070CACF14000002203E00D4C2E
:10201C0040F8224001320F2AF9D94CF8201C00223A
:10202C004CF81C2C4CF8182C4CF8142C4CF8102C8C
:10203C004CF80C3C4CF8085C4FF080734CF8043CAA
:10204C0030BC7047EFBEADDE10B50446314B1B689B
:10205C001BB12430984700285AD0216C2E4800F030
:10206C006BFD616A2D4800F067FDA16A2C4800F0F9
:10207C0063FDE16A2B4800F05FFD216B2A4800F0FC
:10208C005BFD6168294800F057FDA168284800F005
:10209C0053FDE168274800F04FFD2169264800F008
:1020AC004BFD6169254800F047FDA169244800F00B
:1020BC0043FDE169234800F03FFD216A224800F00E
:1020CC003BFD616B214800F037FDA16B204800F00F
:1020DC0033FDE16B1F4800F02FFD236813F0040F54
:1020EC000ED001F077FB01461B4800F025FDFFF7F1
:1020FC0095FD236813F0100F06D0FFF745FFFEE7A0
:10210C00164800F019FDF4E7154800F015FDF4E74A
:10211C0010BD00BFBC410020BC450008CC450008E8
:10212C00DC450008EC450008FC4500080C4600089E
:10213C001C4600082C4600083C4600084C4600088B
:10214C005C4600086C4600087C4600088C4600087B
:10215C009C460008AC460008BC460008DC4600085B
:10216C00F8460008014B1868704700BFCC410020AE
:10217C0008B5094A13680133136001F02BFB836C1B
:10218C00013B836413B101F05BFE08BD436C8364B7
:10219C0001F04EFBF7E700BFCC4100200020704758
:1021AC00002070470020704710B5084C0AE02168E9
:1021BC00074800F0C1FC636898470146054800F0E9
:1021CC00BBFC0834044B9C42F1D310BDA051000859
:1021DC000847000818470008A851000810B50A481D
:1021EC0000F0AAFC094C0AE02168094800F0A4FCA4
:1021FC00636898470146074800F09EFC0834064B7C
:10220C009C42F1D310BD00BF24470008A851000820
:10221C000847000818470008B051000808B5FFF738
:10222C00DDFFFEF767FB08BD10B582B014230193E8
:10223C000A2300934FF4806300220849084801F0F8
:10224C00CFFA044620B1204601F0F0FB02B010BDDD
:10225C00C5220449044800F0DBFCF4E729220008FD
:10226C00444700085C4700084C47000808B5FDF7D8
:10227C00B7FFFEF75FFA00F089FC01F0E9FE01F010
:10228C0099F8FFF7D1FF01F0F1FE00F057F801F0DB
:10229C00B7F8002008BD08B5FFF7E8FF002008BD1F
:1022AC0038B5FDF79DFF044600F0CEF918B920466D
:1022BC00FDF79AFF1EE0144D2946144800F03CFC33
:1022CC0093222946124800F0A3FCF0E7114B1B683F
:1022DC001D4655F814195A684A60196811605B60FC
:1022EC001B60586900F052FE284600F0D5FF2046CE
:1022FC00FDF77AFFFDF774FF0446064B1A689A4205
:10230C00E4D1FDF771FF38BDCC47000898470008B1
:10231C00C04700085C44002010B50BE00134032CCE
:10232C0006D8054B53F82430002BF7D09847F5E727
:10233C00FFF7B6FF0024F2E75042002010B584B03E
:10234C000A4C202303931F2302934FF480730193B1
:10235C00074B00930023074A0749204601F004FA73
:10236C00204601F063FB04B010BD00BFD04100203B
:10237C006042002025230008C4470008F8B50F462A
:10238C0015461E46044678B1B5F5803F12D23A4642
:10239C000221204600F0BAFE04F11403A36163612C
:1023AC00A58366720020F8BDD2220549054800F0CD
:1023BC002FFCE9E7D3220249034800F029FCE6E7A9
:1023CC00D4480008E4470008F44700082DE9F04120
:1023DC0082B00191054600284BD0284600F0A8FF9A
:1023EC0002284DD1554B1B680BB128469847FDF779
:1023FC00F7FE0746AB8B002B49D1019B002B4BD032
:10240C00FDF7EEFE044601F0E5F9002849D0FDF792
:10241C00E7FE064600F018F900284ED13046FDF7CD
:10242C00E3FE2046FDF7E0FE01F0D4F9044600235C
:10243C00036305F1140695F8098001F027FAB8F149
:10244C00000F47D0B8F1010F4DD0019B002B68DC79
:10245C003846FDF7C9FE00F0EBFF206B30B9384B66
:10246C001B68002B68D028469847002002B0BDE8B6
:10247C00F0814FF4A6723349334800F0C9FBACE746
:10248C0040F24D122F49314800F0C2FBAAE7013B44
:10249C00AB83FDF7A9FEE2E7FDF7A6FE6FF00100A6
:1024AC00E4E7284E31462A4800F046FB40F26D1214
:1024BC003146284800F0ACFBA9E7DFF8888041469C
:1024CC00254800F039FB40F26D124146214800F0DE
:1024DC009FFBA3E704F11403726813607268A26196
:1024EC0073606661B1E76B699E420FD094F835104A
:1024FC0093F82120914201D31B68F5E704F11402F3
:10250C0059680A605968A1615A6063619E429CD106
:10251C0004F11403726813607268A26173606661DF
:10252C0093E704F14C0601AA0021304601F044FC6B
:10253C00304601F04BFB8BE7002097E74844002026
:10254C0044440020C8480008E44700080848000834
:10255C0080480008C04700089847000838B5044672
:10256C00E0B1204600F0E4FE02281ED11C4B1B6893
:10257C000BB120469847FDF733FE054604F11403D2
:10258C006069834218D0143801F00AFA01242846F5
:10259C00FDF72AFE012C1ED0204638BD40F2B712A2
:1025AC001049114800F034FBDBE74FF4DC720D49A5
:1025BC000E4800F02DFBD9E7A38B4FF6FF72934228
:1025CC0003D00133A3830024E1E72846FDF70CFE7A
:1025DC006FF00204E0E700F02BFF0024DCE700BF03
:1025EC0040440020B8480008E447000808480008A8
:1025FC0010B5FDF7F5FD0446064A13780133DBB23E
:10260C001370054B1B6803B198472046FDF7ECFD92
:10261C0010BD00BF684300206043002010B5FDF7DB
:10262C00DFFD0446064A1378013BDBB21370054B01
:10263C001B6803B198472046FDF7D6FD10BD00BFBF
:10264C00684300206443002010B5FDF7C9FD034B1F
:10265C001C78E4B2FDF7C8FD204610BD684300208D
:10266C002DE9F04784B099460D9C0E9D15F0400F56
:10267C0017D0DFF84CA115F0100F01D025F0010593
:10268C0015F0010F10D0302615F0020F11D0002AD2
:10269C000CDB15F0040F21D115F0080F20D1002709
:1026AC0008E0DFF820A1E6E72026EDE752422D27CF
:1026BC0000E0002792BB30238DF800304FF0010C66
:1026CC00A4452EDC22460C9B9B1A15F0110F38D119
:1026DC0017B1002B00DD013B9E4626E02B27E9E7D6
:1026EC002027E7E7384BA3FB023E4FEADE0E0EEB4A
:1026FC008E08A2EB480872461AF808E00CF1100399
:10270C006B4403F810EC0CF1010C002AD8D0B9F191
:10271C000A0FE7D002F00F081209EDE74FF0000C9A
:10272C00F3E76246CFE701309E460EF1FF33BEF170
:10273C00000F06DD8842F6D24FF0200E80F800E044
:10274C00F1E727B1884200D20770013B013015F048
:10275C00100F02D00CE001302B465D1E002B03DD68
:10276C008842F8D20670F6E72B4601E0013072463B
:10277C0002F1FF3E624506DD8842F7D2302202703C
:10278C00F4E7013094460CF1FF32BCF1000F0BDD85
:10279C0054B18842F5D202F110056D4415F8105C65
:1027AC000570EEE7013013465A1E002B04DD8842FB
:1027BC00F8D220230370F5E704B0BDE8F08700BF22
:1027CC00A84A0008BC4A0008CDCCCCCC10B50446B5
:1027DC00FFF73AFF10B1054B1C6010BD00F0FAFF7B
:1027EC0008B10463F9E7014B1C60F6E76C43002069
:1027FC00034602E003F8011B624602F1FF3C002A8B
:10280C00F8D170479AB110B5944603468E460C78B1
:10281C0001311C7001331CB1BCF1010CF6D110BD9F
:10282C00BCF1010CFBD0002203F8012BF8E7704738
:10283C00034600E001331A78002AFBD1181A7047BE
:10284C002DE9F04186B00746884614460593461894
:10285C0003D36FEA00084FF0FF36384601E0013031
:10286C0001342378002B00F05681252B03D0B04285
:10287C00F5D20370F3E7002101E041F0100114F8E8
:10288C00013F2D2BF9D02B2B08D0202B09D0232B3B
:10289C000AD0302B0BD141F00101F0E741F00401DB
:1028AC00EDE741F00801EAE741F02001E7E7A3F189
:1028BC003002092A1BD92A2B1BD04FF0FF35237865
:1028CC002E2B21D04FF0FF3C2278682A43D06C2A63
:1028DC0041D0002240E005EB850514F8013B03EBE9
:1028EC004505303D2378303B092BF4D9E7E700252B
:1028FC00F8E70134059B1A1D05921D68002DDEDAE0
:10290C006D4241F01001DAE714F8013FA3F13002F7
:10291C00092A16D92A2B17D04FF0000CD4E70CEB50
:10292C008C0C14F8013B03EB4C0CACF1300C237801
:10293C00303B092BF3D9BCF1000FC5DA4FF0000C7A
:10294C00C2E74FF0000CF2E70134059B1A1D05920B
:10295C00D3F800C0EFE701342378252B00F09180E9
:10296C00C0F0B080782B00F2AD80582BC0F0AA805C
:10297C00583B202B00F2A680DFE803F09CA4A4A413
:10298C00A4A4A4A4A4A4A411A0A4A4A4A4A0A4A496
:10299C00A4A4A4896FA4A430A4B3A4A4B50011F07A
:1029AC00100F09D0059B1A1D05921B78B04200D25E
:1029BC000370013009E00130013D002DF2DDB04221
:1029CC00F9D220230370F6E70130013D002D7FF78B
:1029DC0047AFB042F8D220230370F5E7059B1A1DD0
:1029EC0005921A680AB1002302E0524AFBE7013350
:1029FC00AB4204D012F803E0BEF1000FF7D1BCF1EA
:102A0C00000F02DD634500DD634611F0100F03D0AB
:102A1C0000210EE001300D46691EAB4204DAB042D3
:102A2C00F8D220250570F5E70D46F1E701300132AB
:102A3C000131994208DAB042F8D292F800C080F81D
:102A4C0000C0F3E7013015466A1EAB42BFF608AF73
:102A5C00B042F7D220210170F4E7B5F1FF3F0CD062
:102A6C00059B1A1D05921A680291CDF804C00095B9
:102A7C0010233146FFF7F4FDF2E641F00101082581
:102A8C00EEE7B04201D2252303700130E8E60823BB
:102A9C006C2A2AD0682A2FD0059A02F1040ECDF8A0
:102AAC0014E012680291CDF804C000953146FFF78E
:102ABC00D7FDD5E641F040011023E9E741F00201D2
:102ACC000A23E5E7B04201D225230370421C237888
:102ADC0023B1B24200D243700230C1E6013C104631
:102AEC00BEE60A23D4E71023D2E7059A02F1040EBE
:102AFC00CDF814E01268D5E7059A02F1040ECDF872
:102B0C0014E0D2F800E01FFA8EF211F0020FC9D0D7
:102B1C000FFA8EF2C6E7B8F1000F02D0B04204D221
:102B2C000370C01B06B0BDE8F081002306F8013C21
:102B3C00F7E700BFE04800080FB410B582B004AB53
:102B4C0053F8042B01937F210E48FFF779FE0346BF
:102B5C007F2800D97F230C4A106878B1048B44F08D
:102B6C0040020283074A0021FEF7DAFF064B1B687E
:102B7C001C8302B0BDE8104004B070470148FDF75B
:102B8C00F7FDF6E7784300207043002000B583B0D2
:102B9C000948FFF7D1FF0948FFF7CEFF084B009318
:102BAC000523012203210748FFF7C6FF0648FFF75C
:102BBC00C3FF03B05DF804FBE8480008F4480008C4
:102BCC00384900081849000844490008E8B110F0D9
:102BDC00FF020AD110F47F4F0BD110F47F0F0ED1EE
:102BEC00030E0A4AD05C19307047084B985C0130D0
:102BFC007047C0F30723054AD05C09307047C0F317
:102C0C000743024AD05C113070477047A84900084E
:102C1C0000B583B000238DF80730094B1B681BB13E
:102C2C00984703B05DF804FB13460A460146054875
:102C3C00FFF782FF9DF80730002BFBD0F1E700BFB8
:102C4C00744300207049000810B50446244B1B68DF
:102C5C0083422DD8234B1B68A3422FD96388002BAA
:102C6C0032D11F4B196862680A4494420FD05388C2
:102C7C006BB91C4B1B68934209D01B4B1B689342CE
:102C8C0028D05368636053680B44621A9A60A36837
:102C9C000B449C420BD05A884AB9134A1268A24280
:102CAC001BD062685A6062680A445B1A936010BD5C
:102CBC00A1220E490E48FFF7ABFFCBE7A2220B492E
:102CCC000C48FFF7A5FFC9E7A32208490A48FFF7FC
:102CDC009FFFC6E7044B1C60D3E7034A1360E0E791
:102CEC00FC430020F843002020440020604D0008E5
:102CFC00D04A0008F04A00081C4B00082DE9F843A4
:102D0C0006460F46C41C24F0030421F00305FDF70E
:102D1C0067FA8046FFF798FC78B94046FDF764FAED
:102D2C00182D03D9A5F11803A34212D23A46314605
:102D3C001748FFF701FFBDE8F883DFF858904946C4
:102D4C001548FFF7F9FED22249461448FFF760FFF9
:102D5C00E3E72D1BA5F11802114B1A60114E3460DC
:102D6C004FF4F55222800C3D65600023A360638014
:102D7C0061190D480160625301224A804D608D60DB
:102D8C000A490B48FFF7FAFA32680A4B1A60D2E785
:102D9C00344B0008784D000898470008C0470008DD
:102DAC0028440020FC430020F84300202C4B000852
:102DBC000044002020440020F8B5002800F0C38017
:102DCC000546FDF70DFA0446FFF73EFCC0B9204658
:102DDC00FDF70AFA033525F003055D4B1B689D4290
:102DEC0000F2B3800B2D00D80C254FF0FF31594861
:102DFC00FFF7ECFA584B1F68584B18683B1A49E020
:102E0C00574E31465748FFF797FE4FF48C723146B8
:102E1C005548FFF7FDFEDAE701236380231AF31A06
:102E2C00524A11680B441360514A1268934267D995
:102E3C004F4A136064E05B680344474A1360464B97
:102E4C001B685A881AB14B4909688B42F3D149491E
:102E5C0009688B4259D0002A57D04FF4C1724049AF
:102E6C004548FFF7D5FE50E04FF4C3723C49434848
:102E7C00FFF7CEFE52E040F2871239494048FFF787
:102E8C00C7FE50E04FF4C47235493E48FFF7C0FE10
:102E9C004CE063682E4A1268511B8B424DD2C41809
:102EAC0061880029F5D16668F11A0C39A942F0D372
:102EBC0005F1180C6145AFD3E9180C3100EB010C8E
:102ECC004FF4F55646520026ACF802606668CCF812
:102EDC000460CCF80830616001236380DCF80430B6
:102EEC000C32934201D003449960204A13682B445E
:102EFC000C3313601E4A1268934201D91C4A1360AA
:102F0C004FF4F5532380A74299D01248FFF726FBC4
:102F1C0063190C33174A12689342A5D804F10C06B6
:102F2C0014F0030FA7D114F0030FABD1164B1B6891
:102F3C003BB129463046984703E00648FFF70EFBA5
:102F4C0000263046F8BD0026FBE70026F9E700BF57
:102F5C00284400200044002020440020FC43002092
:102F6C006C4D000898470008C04700083444002006
:102F7C0024440020F8430020704B0008984B0008B4
:102F8C00DC4B0008284C000830440020002800F0DE
:102F9C008B8070B50446FDF723F90546FFF754FB0B
:102FAC0008BB2846FDF720F914F0030F27D13F4B3F
:102FBC001B68A34203D83E4B1B68A34205D840F2C2
:102FCC002F223C493C48FFF723FE3C4B1B680BB1BE
:102FDC0020469847354B1B68A34203D8344B1B68DB
:102FEC00A34213D870BD334E31463548FFF7A4FDCC
:102FFC004FF40B7231463348FFF70AFED1E740F22B
:10300C002E222C493048FFF703FED0E7A4F10C0523
:10301C004FF0FF312D48FFF7D9F934F80A3C23B1B2
:10302C0034F80C3CB3F5F55F0AD02948FFF784FD62
:10303C0034F80C3C34F80A2C29462648FFF77CFD62
:10304C0034F80A3C13B334F80C3CB3F5F55F24D1D7
:10305C00002324F80A3C4FF4F55324F80C3C1E4B87
:10306C001B68AB4201D91C4B1D60104B1B68EB1A43
:10307C0054F8081C194A5B1A11680B441360284653
:10308C00FFF7E2FD1148FFF769FAABE740F24E2279
:10309C0008491348FFF7BCFDD5E740F24F2205491C
:1030AC001048FFF7B5FDD3E7704700BFFC43002085
:1030BC00F8430020584D0008884C00082C44002090
:1030CC0098470008C0470008584C000800440020EE
:1030DC00E44C0008004D000820440020344400203B
:1030EC00304D00083C4D00080023082B09DC1A0168
:1030FC0005498A5C824201D00133F6E701EB0310EB
:10310C0070470020704700BF0C0000202DE9F843E9
:10311C000646884691460846FFF7E6FF074618B173
:10312C0000F030FA7C6807E040F2331219491A4873
:10313C00FFF76EFDF4E724683D1DA5420BD0B4F1FA
:10314C000C03F8D09E42F6D140F2431211491348B9
:10315C00FFF75EFDEFE700F021FA68F07F0886F8D4
:10316C000880082249463046FFF74CFB0C4B1B6885
:10317C000BB130469847FDF733F806F10C037A682B
:10318C0053607A68F2607B603561FDF72DF8BDE81D
:10319C00F88300BF604E00088C4D0008A44D000859
:1031AC003844002010B50446A0B10E4B1B680BB17F
:1031BC002046984700232372FDF712F804F10C0304
:1031CC00E16822694A60E16811602361E360FDF700
:1031DC000BF810BD4FF4B37203490448FFF718FD08
:1031EC00E3E700BF3C4400204C4E0008B44D0008FF
:1031FC00F8B506460F46FCF7F3FF0446FFF724FA32
:10320C0060BB2046FCF7F0FF3046FFF76DFF05462C
:10321C0080B3E868FFF7D0FD0446E8B1EA68002106
:10322C00FFF7E6FA2672002363720822394620461D
:10323C00FFF7E8FA134B1B680BB120469847FCF7D5
:10324C00CFFF2A1D04F10C0369684B606968E160CB
:10325C006B602261FCF7C8FF2046F8BD0A4D294679
:10326C000A48FFF769FC4FF4C37229460848FFF778
:10327C00CFFCC6E74FF4C57203490648FFF7C8FCFC
:10328C00C7E700BF38440020384E000898470008B4
:10329C00C04700088C4D000810B50446D8B194F90D
:1032AC000830002B1EDB134B1B680BB120469847D4
:1032BC0000232372FCF794FF04F10C03E1682269EC
:1032CC004A60E16811602361E360FCF78DFF2046E2
:1032DC00FFF75CFE10BD4FF4DD7207490748FFF79E
:1032EC0097FCDCE740F2BB1203490548FFF790FC62
:1032FC00D9E700BF3C440020244E0008B44D000820
:10330C00C84D000810B5044628B194F90830002BBC
:10331C0008DB002010BD4FF4EE7203490348FFF7A1
:10332C0077FCF2E70120F5E7084E0008B44D0008E1
:10333C0010B5044618B1207A00F07F0010BD40F2A1
:10334C00EF1202490248FFF763FCF4E7F44D000862
:10335C00B44D000810B50446A8B1A36A1A78232A04
:10336C0006D1E2699A4203D9E16A19448A4210D91A
:10337C0021460C48FFF7E0FBFEF750FCFCF730FF52
:10338C000028FDD110BD502207490848FFF740FC2A
:10339C00E3E720339A42F5D821460548FFF7CCFBEA
:1033AC00F0E700BF844E0008104F0008704E000874
:1033BC00A04E000800230C4A138006E00B4901EBD9
:1033CC00C302526041F8332001331F2BF6DD084B4A
:1033DC001F221A700023074A1360074A1360074B19
:1033EC005B601B60704700BF5844002064440020A1
:1033FC004C44002050440020644500205C440020D4
:10340C0008B5084B1868FFF7E1FB0138064B53F879
:10341C003000A0F11402054B1A600830FCF715FFC0
:10342C0008BD00BF644500206444002050440020C7
:10343C00F8B5FCF7D5FE04461A4BB3F900301BBBAC
:10344C00194B1868FFF7C2FB0138184B53F8307052
:10345C00A7F11405164B1E68AE4215D0154B18700B
:10346C00134B1D60144B1B6813B12946304698470B
:10347C002846FFF76FFF114B1B784BB107F1080182
:10348C0006F11C00FCF7B3FE2046FCF7ADFEF8BDC0
:10349C0007F1080106F11C00FCF7A9FE2046FCF719
:1034AC00A3FEF4E758440020644500206444002047
:1034BC00504400204C440020544400206843002019
:1034CC0010B50446F0B1FCF78BFE94F9343023F0C0
:1034DC000F0343F0010384F8343094F835200D4B7E
:1034EC0003EBC20304F1140259680A605968A16124
:1034FC005A606361A16B084A13680B431360FCF7B5
:10350C0073FE10BD40F2171204490548FFF780FB0B
:10351C00D9E700BF6444002064450020F44E000845
:10352C00704E000810B50446B0B1FCF759FE04F11A
:10353C0014036169A2694A6061691160A3616361E6
:10354C0094F835200B4B03EBC20153F832309942FF
:10355C0009D0FCF749FE10BD40F245120649074858
:10356C00FFF756FBE1E7A16B054A136823EA010359
:10357C001360EEE764440020D84E0008704E00083B
:10358C006445002008B5FCF72BFE034A1388013371
:10359C001380FCF729FE08BD5844002008B5FCF741
:1035AC001FFE0B4A1388013B1BB21380002B02DD5C
:1035BC00FCF71AFE08BD134600221A80FCF714FE15
:1035CC00044B1B68002BF5D0FFF732FFF2E700BF6E
:1035DC00584400205044002038B50446FCF700FE47
:1035EC000546A36F0BB1204698472846FCF7FCFD17
:1035FC0038BD000038B5144B1C68FCF7F1FD0546CE
:10360C002046FFF7E9FF2046FFF78CFF042384F8E0
:10361C00343004F14C0000F091FA2046FFF772FEB2
:10362C0001280DD004F11402084B19684A6061613D
:10363C001A60A361FFF7FCFE2846FCF7D5FD38BDE8
:10364C002046FFF7AFFDF5E7504400205C44002016
:10365C00F0B583B0044617460898099A9DF828508F
:10366C000B9E04F11401A161616127626362A06287
:10367C00E2622321FFF7BCF8A16AE36A1A1F164B1A
:10368C000A44616A206AFEF7B9FCE0611F2D1DD85F
:10369C0084F8365084F835500023A3636664A6641E
:1036AC00236384F83430A367E367019300932346C4
:1036BC000A4A214604F14C0000F01EFA084B1B6824
:1036CC000BB120469847002003B0F0BDA722054956
:1036DC000548FFF79DFADBE701360008F9360008CC
:1036EC0068450020905000082C4F000810B5044687
:1036FC00E0B194F8343003F00F03022B1DD12046B7
:10370C00FFF716FE01281FD16FF00103236304F1AC
:10371C0014036169A2694A6061691160A361636104
:10372C002046FFF7CDFEFFF783FE10BD40F223329B
:10373C0009490A48FFF76CFADBE74FF4497206496E
:10374C000748FFF765FADAE740F2253202490548E7
:10375C00FFF75EFAD8E700BF20500008704E000853
:10376C00504F00088C4F00082DE9F04184B00C46F6
:10377C0015461E46DDF828800746C8B1B8F1000F83
:10378C001CD0224601213846FFF7C0FC0D9B039349
:10379C009DF8303002930B9B0193CDF8008033469B
:1037AC002A4621463846FFF753FF04B0BDE8F081A6
:1037BC00E92205490548FFF72BFADFE7EA2202491F
:1037CC000348FFF725FADCE748500008704E000864
:1037DC00D04F0008014B1868704700BF50440020C0
:1037EC002DE9F04385B004460F4690461D46014630
:1037FC000120FFF7FDFC064688B12846FFF7DCFAEE
:10380C00814680B10D9B03939DF830300293019556
:10381C00009043463A4621463046FFF719FF3046A2
:10382C0005B0BDE8F0833046FFF736FD4E46F6E7AF
:10383C0010B5FCF7D5FC134B1B6893F8342002F041
:10384C000F02012A03D159699A69914203D1FCF7FD
:10385C00CBFC002010BD03F114044A6059691160BF
:10386C009C615C6193F83510074A02EBC102516808
:10387C000C605168996154605A61FCF7B5FCFFF714
:10388C00D7FDE6E7504400206444002038B50446D8
:10389C0030B32046FFF74CFD012828D194F8343082
:1038AC0003F00F03012B29D1FCF79AFC05462046A7
:1038BC00FFF738FE94F9343023F00F0343F0020382
:1038CC0084F8343004F14C0000F02EFA2846FCF752
:1038DC008BFC0D4B1B68A3B120469847002038BDCC
:1038EC0040F2CD2209490A48FFF792F9D1E740F29C
:1038FC00CE2206490748FFF78BF9CFE74FF0FF3090
:10390C00EDE70020EBE700BF7045002058500008A1
:10391C00704E00088C4F000870B582B00190FCF717
:10392C005FFC0646184B1C68ECB12046FFF700FD07
:10393C0001281FD12046FFF7A9FF04F14C0501AA6D
:10394C000021284600F038FA284600F03FF93046AE
:10395C00FCF74AFCFFF76CFD236B13F1020F10D040
:10396C00002002B070BD40F2FB1208490848FFF776
:10397C004FF9DAE74FF4FE7204490648FFF748F9AD
:10398C00D8E700232363EBE7504400206C50000879
:10399C00704E00088C4F000808B5FFF7BDFF08BD3E
:1039AC0038B5044638B32046FFF7C2FC012829D1AC
:1039BC0094F8343003F00F03022B2AD1FCF710FCDF
:1039CC00054604F114036169A2694A6061691160DA
:1039DC00A361636104F14C0000F0A6F92846FCF7E2
:1039EC0003FC2046FFF76CFD0C4B1B68A3B1204673
:1039FC009847002038BD40F2F72209490948FFF7E3
:103A0C0007F9D0E74FF43E7205490748FFF700F974
:103A1C00CEE74FF0FF30EDE70020EBE76C450020E0
:103A2C0034500008704E00088C4F000810B5044646
:103A3C00E8B194F8343013F00F0F1FD12046FFF784
:103A4C0077FC012821D194F8362084F83520012305
:103A5C009340A363022384F834302046FFF7A0FF81
:103A6C00FFF7B8FE08B1FFF7E3FC002010BD40F2F1
:103A7C000D1209490948FFF7CBF8DAE74FF48772C2
:103A8C0005490748FFF7C4F8D8E740F20F1202497E
:103A9C000448FFF7BDF8D6E77C500008704E0008CC
:103AAC00E84F00088C4F00089DF800C080F809C052
:103ABC002CF0010C80F809C0C16102620022826204
:103ACC0043621346002B00DD70479A1C00EBC202C8
:103ADC00111D916051600133F4E710B50446FCF7F9
:103AEC007FFB23689C4204D05C69FCF77DFB20467D
:103AFC0010BD4FF0FF34F8E7F0B583B00E46144616
:103B0C001D46074678B132460A213846FFF7FEFAC1
:103B1C009DF824300093089B2A4621463846FFF72F
:103B2C00C3FF03B0F0BDC92202490348FFF770F888
:103B3C00E9E700BF8C510008A050000838B50446D6
:103B4C00C0B12046FFF7F4FB0A2819D12046FFF735
:103B5C00D9FBD8B1FCF744FB0022002A1CDD637AA8
:103B6C0023F001036372FCF73FFB2046FFF71AFBBF
:103B7C00002038BDDD2211491148FFF749F8E0E774
:103B8C00DE220E490F48FFF743F8DFE7DF220B492F
:103B9C000D48FFF73DF8DDE7931C04EBC303191D3B
:103BAC009D68D3F804C0CCF80450D3F804C0C5F811
:103BBC0000C0996059600132CFE700BF7C5100080A
:103BCC00A0500008B4500008F0500008F0B583B0C5
:103BDC000446002845D02046FFF7AAFB0A2847D107
:103BEC00FCF7FEFA05460022002A48DD637A23F032
:103BFC0001036372424B1B680BB120469847626A03
:103C0C006FF000439A4247D2FEF7ACFA636A18444D
:103C1C00A062637A13F0040F45D03A4F019700224B
:103C2C00002A47D0384A136801331360019B04F112
:103C3C00140219684A60196861611A60A361637A99
:103C4C0043F0010363722846FCF7CEFA637A13F053
:103C5C00040F03D02D4B1B78012B43D0002003B055
:103C6C00F0BD40F241122A492A48FEF7D1FFB2E7D3
:103C7C004FF4A17226492848FEF7CAFFB0E7931CFF
:103C8C0004EBC303191D5E68986870605E6806607B
:103C9C00996059600132A7E740F251121C491F4844
:103CAC00FEF7B6FFB0E71E4FB8E702AB03EB82039B
:103CBC0043F8041C02AB03EB820353F8041CD3003F
:103CCC0007EBC2067668B1420AD009681433CB1AE6
:103CDC009B6A9842E9D01B1A6FF00046B342E4D2BB
:103CEC0001329DE70F4B93F8343003F00F03022B96
:103CFC00B4D10C48FFF754FEFFF79AFBAEE700BFB8
:103D0C004444002078450020744500209C0000208D
:103D1C006C510008A0500008B45000081C51000859
:103D2C00884500209045002038B50446D0B1204687
:103D3C00FFF7FEFA0A281CD1637A13F0010F30D07A
:103D4C00194B1B680BB120469847FCF749FA002227
:103D5C00002A15DD637A23F001036372FCF744FA41
:103D6C00002038BD4FF4DB7210491148FEF750FFAC
:103D7C00DDE740F2B7120D490E48FEF749FFDBE7CD
:103D8C00931C04EBC303191D9D68D3F804C0CCF835
:103D9C000450D3F804C0C5F800C0996059600132D2
:103DAC00D6E74FF0FF30DCE7404400205C510008C0
:103DBC00A0500008B450000870B50C4615460646D5
:103DCC0068B13046FFF7B4FA0A280FD1FCF708FAAD
:103DDC00042C14D8DFE804F017111A1F240040F249
:103DEC00D91214491448FEF713FFEAE74FF4ED72A9
:103DFC0010491248FEF70CFFE8E7736A2B60FCF7DA
:103E0C00F3F9002070BD2B687362F8E7737A23F026
:103E1C0002037372F3E7737A43F002037372EEE7F3
:103E2C00737A13F0010F02D001232B60E7E7002314
:103E3C002B60E4E748510008A0500008B45000087B
:103E4C00F0B583B0CDF804D0CDF800D0FEF78AF9E8
:103E5C000546FCF7C5F907462EE0931C06EBC30399
:103E6C00191D5D68986868605D68056099605960A7
:103E7C00013233E0009B5C6023600094C4F804D0F2
:103E8C00A368E0689847FEF76DF90546204B1B6860
:103E9C000BB130469847009A6B469A420CD0226878
:103EAC006368536022681A606460246014F80B3CE9
:103EBC0003F00302032A1DD0164B1C689C4221D030
:103ECC00A4F114066369EB1A6FF00042934219D205
:103EDC00114B1B680BB1304698470022002ABCDD01
:103EEC0014F80B3C13F0020FC4D123F0010304F8B7
:103EFC000B3CBFE723F0010304F80B3C3046FFF703
:103F0C0065FED9E73846FCF76FF903B0F0BD00BF8A
:103F1C0084450020884500208045002070B582B083
:103F2C00CDF804D0CDF800D0FCF75AF905463BE0AB
:103F3C00931C06EBC303191D9868D3F804C0CCF886
:103F4C000400D3F804C0C0F800C099605960013275
:103F5C003EE0009B5C6023600094C4F804D0294BC5
:103F6C0000221A702846FCF73FF9A368E0689847CE
:103F7C00254B1B680BB130469847FCF731F90546C9
:103F8C00204B01221A70009A6B469A420CD0226880
:103F9C006368536022681A606460246014F80B3CF8
:103FAC0003F00302032A1FD0184B1C689C4223D039
:103FBC00A4F11406FEF7D6F86369C01A6FF000433B
:103FCC00984219D2124B1B680BB13046984700220D
:103FDC00002AADDD14F80B3C13F0020FB9D123F01D
:103FEC00010304F80B3CB4E723F0010304F80B3C89
:103FFC003046FFF7EBFDD7E72846FCF7F5F802B0A3
:10400C0070BD00BF9C000020844500207845002036
:10401C008045002010B507E0FFF7DCFBFFF736FC0E
:10402C00FFF706FAFFF77AFF0848FFF756FDB0F1E5
:10403C00FF3FF1D00446FEF795F8201A6FF00043CD
:10404C009842EFD2FFF7A8FCECE700BF78450020C0
:10405C00002303B17047044901EBC302526041F8DD
:10406C0033200133F5E700BF8845002010B584B03C
:10407C000023A3B10E4C0A230393042302934FF4A1
:10408C00007301930B4B009300230B4A0B49204602
:10409C00FFF76AFB2046FFF7C9FC04B010BD0849C6
:1040AC0001EBC302526041F833200133E1E700BF5A
:1040BC009045002010460020214000084051000887
:1040CC007845002070B50D4E0D4D761BB61006D000
:1040DC00002455F8043B01349847A642F9D1094E07
:1040EC00094D761B00F0D4F8B61006D0002455F814
:1040FC00043B01349847A642F9D170BDC051000869
:10410C00C0510008C8510008C0510008830730B5E1
:10411C0048D0541E002A3FD0CAB2034601E0013CED
:10412C003AD303F8012B9D07F9D1032C2DD9CDB22D
:10413C0045EA05250F2C45EA054536D9A4F11002B0
:10414C0022F00F0C03F1200EE6444FEA121C03F18F
:10415C00100242E9045542E9025510327245F8D179
:10416C000CF1010214F00C0F03EB021204F00F0C13
:10417C0013D0ACF1040323F003030433134442F8CB
:10418C00045B9342FBD10CF003042CB1CAB21C4467
:10419C0003F8012B9C42FBD130BD64461346002C26
:1041AC00F4D1F9E703461446BFE71A46A446E0E704
:1041BC00024B13B1024800F005B870470000000034
:1041CC00DD410008002301461A46184600F01AB8D3
:1041DC0038B5084B084D5B1B9C1007D0043B1D44A5
:1041EC00013C55F804399847002CF9D1BDE838400A
:1041FC0000F054B8CC510008C8510008704700BFFB
:10420C00704700BF2DE9F047DFF87CA00646DAF8CE
:10421C00000098460F469146FFF7F0FF1B4B1B68BA
:10422C00D3F8484124B365681F2D26DC5EB96B1C9E
:10423C000235DAF80000636044F82570FFF7E0FF00
:10424C000020BDE8F08704EB85010123C1F88890BC
:10425C00D4F88821AB401A43022EC4F88821C1F847
:10426C000881E4D1D4F88C211343C4F88C31DEE7F7
:10427C0003F5A674C3F84841D5E7DAF80000FFF758
:10428C00BFFF4FF0FF30DCE7C80400209C51000852
:10429C00F8B500BFF8BC08BC9E467047F8B500BF27
:0842AC00F8BC08BC9E467047F7
:1042B40000000000000000000102030406070809D2
:1042C400000000000102030464657620213D2052B1
:1042D400545F4E554C4C000072745F6F626A6563A4
:1042E400745F6765745F7479706528266465762DDC
:1042F4003E706172656E7429203D3D2052545F4FBB
:10430400626A6563745F436C6173735F4465766965
:104314006365000072745F6F626A6563745F6973DA
:104324005F73797374656D6F626A6563742826645C
:1043340065762D3E706172656E74290072745F64D7
:1043440065766963655F7772697465007468726520
:1043540061640000252D2A2E732070726920207359
:104364007461747573202020202020737020202015
:104374002020737461636B2073697A65206D6178A2
:104384002075736564206C656674207469636B20A2
:10439400206572726F720A002D000000202D2D2DF1
:1043A40020202D2D2D2D2D2D2D202D2D2D2D2D2D60
:1043B4002D2D2D2D202D2D2D2D2D2D2D2D2D2D2043
:1043C400202D2D2D2D2D2D20202D2D2D2D2D2D2D40
:1043D4002D2D2D202D2D2D0A00000000252D2A2EF7
:1043E4002A732025336420002072656164792020BB
:1043F400000000002073757370656E640000000097
:1044040020696E69742020200000000020636C6F16
:1044140073652020000000002072756E6E696E675F
:10442400000000002030782530387820307825309E
:104434003878202020202530326425252020203083
:10444400782530387820253033640A00627573206B
:104454006661756C743A0A005343425F4346535293
:104464005F424653523A30782530325820000000DB
:1044740049425553455252200000000050524543D2
:104484004953455252200000494D50524543495327
:104494004552522000000000554E53544B45525291
:1044A4002000000053544B45525220005343422DE8
:1044B4003E424641523A253038580A006D656D2017
:1044C4006D616E616765206661756C743A0A0000FF
:1044D4005343425F434653525F4D4653523A3078FA
:1044E40025303258200000004941434356494F4C7F
:1044F400200000004441434356494F4C2000000033
:104504004D554E53544B4552522000004D53544B7D
:1045140045525220000000005343422D3E4D4D4170
:10452400523A253038580A00757361676520666110
:10453400756C743A0A0000005343425F4346535279
:104544005F554653523A30782530325820000000E7
:10455400554E444546494E5354522000494E5653F5
:104564005441544520000000494E56504320000059
:104574004E4F435020000000554E414C49474E4594
:104584004420000044495642595A45524F200000E5
:104594006661696C656420766563746F7220666514
:1045A4007463680A000000006465627567206576BC
:1045B400656E740A000000007073723A203078252A
:1045C4003038780A000000007230303A2030782504
:1045D4003038780A000000007230313A20307825F3
:1045E4003038780A000000007230323A20307825E2
:1045F4003038780A000000007230333A20307825D1
:104604003038780A000000007230343A20307825BF
:104614003038780A000000007230353A20307825AE
:104624003038780A000000007230363A203078259D
:104634003038780A000000007230373A203078258C
:104644003038780A000000007230383A203078257B
:104654003038780A000000007230393A203078256A
:104664003038780A000000007231303A2030782562
:104674003038780A000000007231313A2030782551
:104684003038780A000000007231323A2030782540
:104694003038780A00000000206C723A2030782507
:1046A4003038780A000000002070633A2030782502
:1046B4003038780A00000000686172642066617511
:1046C4006C74206F6E207468726561643A2025737F
:1046D4000D0A0D0A000000006861726420666175AD
:1046E4006C74206F6E2068616E646C65720D0A0DC7
:1046F4000A00000046505520616374697665210DF7
:104704000A000000696E697469616C697A65202524
:10471400730000003A256420646F6E650A0000008F
:10472400646F20636F6D706F6E656E747320696E55
:10473400697469616C697A6174696F6E2E0A00002C
:104744006D61696E0000000074696420213D20528F
:10475400545F4E554C4C000072745F6170706C690C
:10476400636174696F6E5F696E6974007274695F06
:10477400626F6172645F656E640000007274695FE9
:10478400626F6172645F7374617274007274695FE2
:10479400656E640046756E6374696F6E5B25735D48
:1047A400207368616C6C206E6F7420626520757371
:1047B400656420696E204953520A000030000000ED
:1047C4007469646C6500000072745F74687265617A
:1047D400645F69646C655F65786375746500000087
:1047E40073656D20213D2052545F4E554C4C0000A2
:1047F40076616C7565203C2030783130303030552E
:104804000000000072745F6F626A6563745F6765BD
:10481400745F74797065282673656D2D3E706172BE
:10482400656E742E706172656E7429203D3D205250
:10483400545F4F626A6563745F436C6173735F5363
:10484400656D6170686F72650000000072745F6F5F
:10485400626A6563745F69735F73797374656D6F9E
:10486400626A656374282673656D2D3E7061726596
:104874006E742E706172656E7429000046756E63E5
:1048840074696F6E5B25735D207368616C6C206E58
:104894006F742062652075736564206265666F724B
:1048A40065207363686564756C65722073746172E6
:1048B400740A000072745F73656D5F72656C656184
:1048C4007365000072745F73656D5F74616B65007E
:1048D40072745F73656D5F696E697400284E554C20
:1048E4004C2900000A205C207C202F0A00000000D4
:1048F4002D205254202D20202020205468726561E0
:1049040064204F7065726174696E672053797374A3
:10491400656D0A00202F207C205C2020202020258B
:10492400642E25642E2564206275696C64202573C9
:104934000A0000004D6172202035203230323200EE
:104944002032303036202D203230323020436F7008
:104954007972696768742062792072742D74687240
:10496400656164207465616D0A000000282573295F
:1049740020617373657274696F6E206661696C651A
:10498400642061742066756E6374696F6E3A257372
:104994002C206C696E65206E756D6265723A2564B3
:1049A400200A0000000001000200010003000100D1
:1049B40002000100040001000200010003000100E4
:1049C40002000100050001000200010003000100D3
:1049D40002000100040001000200010003000100C4
:1049E40002000100060001000200010003000100B2
:1049F40002000100040001000200010003000100A4
:104A04000200010005000100020001000300010092
:104A14000200010004000100020001000300010083
:104A24000200010007000100020001000300010070
:104A34000200010004000100020001000300010063
:104A44000200010005000100020001000300010052
:104A54000200010004000100020001000300010043
:104A64000200010006000100020001000300010031
:104A74000200010004000100020001000300010023
:104A84000200010005000100020001000300010012
:104A94000200010004000100020001000300010003
:104AA400020001003031323334353637383941426F
:104AB4004344454600000000303132333435363744
:104AC4003839616263646566000000002872745FAF
:104AD40075696E74385F74202A296D656D203E3DBA
:104AE40020686561705F7074720000002872745FE2
:104AF40075696E74385F74202A296D656D203C20B9
:104B04002872745F75696E74385F74202A29686529
:104B140061705F656E6400006D656D2D3E75736533
:104B240064203D3D20300000686561700000000095
:104B34006D656D20696E69742C206572726F7220C8
:104B4400626567696E20616464726573732030788E
:104B540025782C20616E6420656E64206164647223
:104B640065737320307825780A00000028286C6665
:104B7400726565203D3D20686561705F656E6429DE
:104B8400207C7C2028216C667265652D3E757365DA
:104B9400642929002872745F75626173655F7429E2
:104BA4006D656D202B2053495A454F465F5354522F
:104BB4005543545F4D454D202B2073697A65203C45
:104BC4003D202872745F75626173655F742968653E
:104BD40061705F656E6400002872745F7562617352
:104BE400655F7429282872745F75696E74385F7400
:104BF400202A296D656D202B2053495A454F465F65
:104C04005354525543545F4D454D29202520525449
:104C14005F414C49474E5F53495A45203D3D203042
:104C24000000000028282872745F75626173655F54
:104C340074296D656D292026202852545F414C4902
:104C4400474E5F53495A45202D20312929203D3DA7
:104C54002030000028282872745F75626173655FD4
:104C64007429726D656D292026202852545F414CA9
:104C740049474E5F53495A45202D20312929203D6B
:104C84003D2030002872745F75696E74385F74203B
:104C94002A29726D656D203E3D202872745F756906
:104CA4006E74385F74202A29686561705F7074724D
:104CB400202626202872745F75696E74385F74200C
:104CC4002A29726D656D203C202872745F75696EA7
:104CD40074385F74202A29686561705F656E6400AA
:104CE400746F20667265652061206261642064616E
:104CF400746120626C6F636B3A0A00006D656D3AF3
:104D0400203078253038782C207573656420666CE3
:104D140061673A2025642C206D6167696320636FA5
:104D240064653A203078253034780A006D656D2D3D
:104D34003E757365640000006D656D2D3E6D6167A1
:104D44006963203D3D20484541505F4D41474943FB
:104D54000000000072745F6672656500706C7567B0
:104D64005F686F6C6573000072745F6D616C6C6F6B
:104D74006300000072745F73797374656D5F6865B6
:104D840061705F696E697400696E666F726D6174DB
:104D9400696F6E20213D2052545F4E554C4C0000EB
:104DA4006F626A20213D206F626A656374000000AF
:104DB4006F626A65637420213D2052545F4E554CE6
:104DC4004C00000021286F626A6563742D3E74797B
:104DD400706520262052545F4F626A6563745F4396
:104DE4006C6173735F53746174696329000000001C
:104DF40072745F6F626A6563745F6765745F747908
:104E04007065000072745F6F626A6563745F6973D2
:104E14005F73797374656D6F626A65637400000013
:104E240072745F6F626A6563745F64656C657465F0
:104E34000000000072745F6F626A6563745F616C86
:104E44006C6F63617465000072745F6F626A65639E
:104E5400745F6465746163680000000072745F6F5E
:104E6400626A6563745F696E697400007468726570
:104E7400616420213D2052545F4E554C4C0000008B
:104E84007468726561643A257320737461636B207E
:104E94006F766572666C6F770A0000007761726ED8
:104EA400696E673A20257320737461636B2069739C
:104EB40020636C6F736520746F20656E64206F6669
:104EC40020737461636B20616464726573732E0A6A
:104ED4000000000072745F7363686564756C655FDD
:104EE40072656D6F76655F74687265616400000059
:104EF40072745F7363686564756C655F696E73650E
:104F040072745F7468726561640000005F72745F3C
:104F14007363686564756C65725F737461636B5FFA
:104F2400636865636B0000007072696F72697479FD
:104F3400203C2052545F5448524541445F505249EA
:104F44004F524954595F4D4158000000287468720B
:104F54006561642D3E7374617420262052545F543D
:104F640048524541445F535441545F4D41534B298A
:104F7400203D3D2052545F5448524541445F5355AF
:104F84005350454E4400000072745F6F626A65635B
:104F9400745F6765745F74797065282872745F6FD5
:104FA400626A6563745F7429746872656164292038
:104FB4003D3D2052545F4F626A6563745F436C6188
:104FC40073735F5468726561640000007374616395
:104FD4006B5F737461727420213D2052545F4E558F
:104FE4004C4C0000287468726561642D3E737461D2
:104FF4007420262052545F5448524541445F535410
:1050040041545F4D41534B29203D3D2052545F5440
:1050140048524541445F494E4954000072745F74DC
:1050240068726561645F74696D656F757400000012
:1050340072745F7468726561645F726573756D65BF
:105044000000000072745F7468726561645F696E69
:105054006974000072745F7468726561645F73756B
:105064007370656E6400000072745F7468726561C9
:10507400645F736C6565700072745F7468726561F7
:10508400645F737461727475700000005F72745FA2
:105094007468726561645F696E69740074696D65D2
:1050A4007220213D2052545F4E554C4C00000000AC
:1050B40072745F6F626A6563745F6765745F747945
:1050C4007065282674696D65722D3E706172656E17
:1050D4007429203D3D2052545F4F626A6563745FBA
:1050E400436C6173735F54696D65720072745F6FB2
:1050F400626A6563745F69735F73797374656D6FF6
:10510400626A656374282674696D65722D3E7061E8
:1051140072656E742900000074696D65722D3E69B4
:105124006E69745F7469636B203C2052545F544908
:10513400434B5F4D4158202F2032000074696D6548
:105144007200000072745F74696D65725F636F6EE4
:1051540074726F6C0000000072745F74696D657224
:105164005F73746F7000000072745F74696D6572B0
:105174005F7374617274000072745F74696D657238
:105184005F6465746163680072745F74696D6572ED
:0C5194005F696E6974000000A00000203C
:0851A00080470008A921000866
:0851A80070470008AD2100086A
:0851B00090470008B12100083E
:0851B80060B1FF7F010000005F
:0851C000BD410008D101000807
:0451C800AD0100082D
:1051CC000024F400010000001000000001000000A9
:1051DC0010000020100000208000000002000000E1
:1051EC002000002020000020200000000300000010
:1051FC0030000020300000202400000004000000DB
:10520C0040000020400000202000000005000000AD
:10521C00500000205000002030000000060000006C
:10522C0060000020600000203C000000080000002E
:10523C007000002070000020340000000900000005
:10524C008000002080000020400000000A000000C8
:10525C0090000020900000202C00000001000000B5
:10526C00000000008C030020F40300205C040020EC
:10527C000000000000000000000000000000000022
:10528C000000000000000000000000000000000012
:10529C000000000000000000000000000000000002
:1052AC0000000000000000000000000000000000F2
:1052BC0000000000000000000000000000000000E2
:1052CC0000000000000000000000000000000000D2
:1052DC0000000000000000000000000000000000C2
:1052EC0000000000000000000000000000000000B2
:1052FC0000000000000000000000000000000000A2
:10530C000000000000000000010000000000000090
:10531C000E33CDAB34126DE6ECDE05000B00000055
:10532C000000000000000000000000000000000071
:10533C000000000000000000000000000000000061
:10534C000000000000000000000000000000000051
:10535C000000000000000000000000000000000041
:0C568C000000000000000000104800209A
:0400000508000AF5F0
:00000001FF
